:020000040800F2
:1000000060B9002079020008154D0008233B000864
:100010000D44000831070008815F0008000000005F
:1000200000000000000000000000000091540008E3
:10003000370A0008000000008951000841550008F7
:10004000930200089302000893020008930200083C
:10005000930200089302000893020008930200082C
:10006000930200088F0A0008930200089302000818
:100070009302000893020008BD080008CD0800089C
:100080009302000893020008930200080000000099
:1000900000000000000000000000000093020008C3
:1000A00061560008930200089302000893020008BA
:1000B00093020008930200089302000893020008CC
:1000C0009302000893020008930200088D51000873
:1000D0009D5100086D5F00089302000800000000B9
:1000E0009302000893020008930200080000000039
:1000F0000000000000000000000000009302000863
:100100000000000093020008930200089302000818
:1001100000000000000000000000000000000000DF
:10012000DD08000893020008ED080008FD0800083B
:100130000D090008000000000000000000000000A1
:100140000000000000000000000000009302000812
:1001500093020008930200081D090008930200089A
:100160009302000893020008000000000000000055
:10017000000000000000000000000000000000007F
:1001800000000000930200080000000000000000D2
:10019000930200089302000800F002F800F05CF8F7
:1001A0000AA090E8000C82448344AAF10107DA45D2
:1001B00001D100F051F8AFF2090EBAE80F0013F0C8
:1001C000010F18BFFB1A43F001031847A0AD000050
:1001D000C0AD00000A444FF0000C10F8013B13F0D2
:1001E000070408BF10F8014B1D1108BF10F8015B90
:1001F000641E05D010F8016B641E01F8016BF9D183
:1002000013F0080F1EBF10F8014BAD1C0C1B09D1D9
:100210006D1E58BF01F801CBFAD505E014F8016B4B
:1002200001F8016B6D1EF9D59142D6D370470000DD
:100230000023002400250026103A28BF78C1FBD8EF
:10024000520728BF30C148BF0B6070471FB50AF086
:10025000B6FC1FBD10B510BD00F006F91146FFF742
:10026000F5FF07F09BFE00F024F903B4FFF7F2FF5F
:1002700003BC00F027F900000948804709480047FF
:10028000FEE7FEE7FEE7FEE7FEE7FEE7FEE7FEE746
:10029000FEE7FEE704480549054A064B70470000A3
:1002A000FD550008990100086059002060B9002040
:1002B000607900206079002053EA020C00F0698028
:1002C0002DE9F04B4FF00006002B1FBFB3FA83F56A
:1002D00003FA05F424FA05F65E4012BF1643B2FA9B
:1002E00082F502FA05F4C5F120051EBF22FA05FCCD
:1002F00044EA0C04203556EA044C4FEA144418BF73
:10030000641C4FF000084FF00009904271EB030CA1
:1003100039D3002919BFB1FA81F701FA07F6B0FA0B
:1003200080F700FA07F6C7F120071EBF20FA07FC86
:1003300046EA0C062037B6FBF4FCA7EB0507103F96
:1003400007F01F0BCBF120060CFA0BFB2CFA06F67C
:1003500044BFB3460026202FA4BF5E464FF0000BDB
:100360005BEA060C08BF4FF0010B19EB0B09ABFB66
:10037000027C48EB0608C01B06FB02CC0BFB03CC3F
:1003800071EB0C01C1E70B46024641464846BDE809
:10039000F08B13B54FF000004FF00001AFF3008079
:1003A000BDE81C40704710B54C1084EA530404D5D6
:1003B0004042C1F1000138BF491E1B4204D55242E0
:1003C000C3F1000338BF5B1EFFF776FF14F0804FC8
:1003D00004D04042C1F1000138BF491E14F0004F63
:1003E00004D05242C3F1000338BF5B1E10BD4FF072
:1003F000000200B5134694469646203922BFA0E875
:100400000C50A0E80C50B1F12001BFF4F7AF090780
:1004100028BFA0E80C5048BF0CC05DF804EB890071
:1004200028BF40F8042B08BF704748BF20F8022BB4
:1004300011F0804F18BF00F8012B704770477047CC
:10044000704710B500F008F8006810BD10B50446FC
:1004500000F002F8046010BD00487047FC5800200E
:1004600000487047FC5800207546FFF7F9FFAE467C
:1004700005006946534620F00700854618B020B5B0
:10048000FFF708FFBDE820404FF000064FF00007DF
:100490004FF000084FF0000B21F00701AC46ACE82C
:1004A000C009ACE8C009ACE8C009ACE8C0098D4699
:1004B000704710B50446AFF300802046BDE81040F9
:1004C000FFF7D3BE01491820ABBEFEE726000200AD
:1004D000704770B50546AC6B206C00F0500050BB07
:1004E000206C40F4007020642068806800F0405068
:1004F000E8B9207ED8B92068C06A00F4700020B145
:100500002068806800F4806088B92068406820F026
:10051000200021684860206C20F480702064206CEA
:1005200000F4805018B9206C40F00100206420468F
:1005300000F0E6FC0BE0206C00F0100018B1204643
:1005400000F0E0FC03E0A06BC16C2846884770BD5A
:1005500070B50546AC6B40202064606C40F0040030
:100560006064204600F0CEFC70BD70B50446A56BFB
:10057000284600F0C6FC70BD55494A6822F4403256
:100580004A604A6843681A434A600268526822F423
:10059000807203685A6002685368026943EA022263
:1005A00003685A600268526822F0407203685A6019
:1005B0000268526883681A4303685A600268926846
:1005C00022F4006203689A6002689268C3681A4362
:1005D00003689A603F4B826A9A4218D00268926818
:1005E00022F0706203689A6002689268836A1A4314
:1005F00003689A600268926822F0405203689A6029
:1006000002689268C36A1A4303689A600BE0026842
:10061000926822F0706203689A600268926822F021
:10062000405203689A600268926822F002020368EE
:100630009A6002689368027E43EA420203689A6005
:100640002022125CA2B10268526842F40062036880
:100650005A600268526822F4604203685A60026875
:100660005368426A521E43EA423203685A6005E008
:100670000268526822F4006203685A600268D26A13
:1006800022F470020368DA620268D36A828B521E17
:1006900043EA02520368DA620268926822F4007246
:1006A00003689A600268936890F8302043EA422217
:1006B00003689A600268926822F4806203689A6014
:1006C00002689368426943EA822203689A6070472D
:1006D000002301400100000F10B52DED048BF0EE5A
:1006E000408AB0EE609A9FED100AB0EE408AF0EEBC
:1006F000490AB0EE680A00F01DF8B0EE408A0B48D7
:1007000080ED278A4FF4FA71983004F004FB074813
:1007100090ED2E0A80ED140AB0EE480A06F042FB76
:10072000BDEC048B10BD000000000000082A002072
:1007300000BFFEE7B0EE401ADFED291AB0EE610A05
:10074000F5EEC00AF1EE10FA24DD2648D0ED031ACA
:1007500071EEC11A71EEE01AB0EE610ADFED221AF5
:10076000B4EEE10AF1EE10FA06DDDFED201A70EECC
:10077000611AB0EE610A31E0DFED1D1AB4EEE10A54
:10078000F1EE10FA2AD2DFED191A70EE211AB0EE4E
:10079000610A23E01348D0ED031A71EEC11A71EE1D
:1007A000E01AB0EE610ADFED101AB4EEE10AF1EEE4
:1007B00010FA06DDDFED0D1A70EE611AB0EE610A77
:1007C0000CE0DFED0B1AB4EEE10AF1EE10FA05D2FF
:1007D000DFED061A70EE211AB0EE610A70470000D4
:1007E00000000000E4430020000034430000B44354
:1007F000000034C39FED1B0A00EBC0021A4901EB55
:10080000820181ED000A9FED170A00EBC002164934
:1008100001EB820181ED010A9FED120A00EBC0029B
:10082000114901EB820181ED020A9FED0E0A00EBF6
:10083000C0020D4901EB820181ED030A9FED090A17
:1008400000EBC002084901EB820181ED080A9FED2F
:10085000050A00EBC002044901EB820181ED070AA1
:100860007047000000000000342A002000B500237B
:1008700004E01846FFF7BEFF581CC3B2042BF8DB98
:1008800000BD000070B502460C46FF25FF2309E0BD
:1008900012F8010B80EA05010648405C80EA030576
:1008A0000548435C201EA4F10106B4B2F0D143EA2E
:1008B000052070BDD2AB0008D2AC000810B50248CC
:1008C00000F0E2FC10BD00003C56002010B50248CC
:1008D00000F0DAFC10BD00009C56002010B5024864
:1008E00000F0D2FC10BD00007C55002010B502487D
:1008F00000F0CAFC10BD00003C58002010B50248B2
:1009000000F0C2FC10BD0000DC55002010B502480C
:1009100000F0BAFC10BD00006C54002010B5024875
:1009200000F0B2FC10BD00009C5800200146087881
:1009300010381823B0FBF3F20848805CC865032A1E
:1009400005D908686FF30900001D886503E0086891
:100950006FF309008865886D7047000002AE0008DB
:10096000014600208A6A8B69CBB932B1012A0DD0C9
:10097000022A03D0032A10D10EE000BFCB6A03F095
:100980008073B3F1807F00D1012007E0CB6AB3F11F
:10099000C07F00D1012001E000E000BF34E08B699E
:1009A000B3F5005F1AD132B1012A07D0022A03D071
:1009B000032A11D10AE000BF01200EE0CB6A03F048
:1009C0008073B3F1807F00D1012006E0CB6AB3F1E0
:1009D000C07F00D1012000E000BF15E032B1012A44
:1009E00005D0022A04D0032A0CD103E000BF00BFC7
:1009F000012008E0CB6A03F08073B3F1807F00D15F
:100A0000012000E000BF00BF704730B504682468D3
:100A100024F4802405682C60046863608468402C9A
:100A200004D10468A2600468E16003E00468A16086
:100A30000468E26030BD704704460E4804800E48EA
:100A4000C0880C4948800C48008988800B48C068E1
:100A5000C0F30720C8800948C068C0B2088108F008
:100A600077FB07F03FFD04E007200549087007F019
:100A700061FDF9E7C825002024480020082A00204D
:100A80006E01002000E0401E0028FCD1704710B528
:100A9000082000F02DFE10BD10B54FF400400749AE
:100AA000096848620649096848623C21034802F027
:100AB0005FFB3C21024802F05BFB10BDFC560020AE
:100AC0003C57002030B54A4B1B685B6A99B2494BD2
:100AD0001B685B6A9AB24FF080431B68464C2380C8
:100AE00023461B78C3F300132380444B1B68444CFC
:100AF000238023461B78C3F3001323803E4B1B88BF
:100B0000012B14D13F4B5B8A5B1A98B24CF25033E5
:100B1000984202DD4FF6FF73181A3A4BDB681C1837
:100B2000384BDC6043421CB2364B9C8211E0354BA3
:100B30005B8ACB1A98B24CF25033984202DD4FF6E2
:100B4000FF73181A2F4BDB681C182E4BDC6004B2A5
:100B50009C822B4B1B88012B12D12A4BDB8C9B1ABE
:100B600098B24CF25033984202DD4FF6FF73181AD8
:100B7000244B1B6A1C18234B1C6204B21C8513E017
:100B8000204BDB8CD31A98B24CF25033984202DDE2
:100B90004FF6FF73181A1B4B1B6A1C18194B1C626B
:100BA00043421CB2174B1C85164B5982DA841C46F3
:100BB000B4F92850B4F914402B1903EBD374641022
:100BC00000EE104AB8EEC00A0E4C84ED0C0AB4F9DF
:100BD0002850B4F914402B1B03EBD374641000EEBF
:100BE000104AB8EEC00A074C84ED150A30BD00006B
:100BF000FC5600203C570020240000200004004048
:100C000026000020082A00207047000010B50022AE
:100C10004FF48051014800F074FE10BD0004024002
:100C200010B5802000F076F810BD00002DE9F041ED
:100C300004460D461646271204F0FF08FFF7E6FFAC
:100C400003200A4908700846477080F80280642330
:100C50000322074801F09CFD6423324629460448DC
:100C600001F0E2FC00F070F8BDE8F08128000020FF
:100C7000245500202DE9F04705460F4616464FEA59
:100C8000252805F0FF0900F035F8FFF7BFFF022027
:100C90000E490870084680F8018080F80290002410
:100CA00005E0395DE01C094A1154601CC4B2B4422D
:100CB000F7DBF21C64230549054801F069FD00F0EB
:100CC00043F800F007F8BDE8F0870000D2250020C7
:100CD0002455002008B504200090FFF797FF6423F7
:100CE00001226946024801F053FD00F02DF808BDCD
:100CF0002455002008B506200090FFF787FF6423E5
:100D000001226946024801F043FD00F01DF808BDCC
:100D10002455002010B50446FFF7ECFFFFF776FFDF
:100D200001200749087008464470642302220548E0
:100D300001F02EFD00F008F8FFF7CCFF10BD000019
:100D40002B0000202455002010B501221103024879
:100D500000F0D7FD10BD00000004024038B5024687
:100D60000020009000BF92F83C00012801D1022031
:100D700038BD012082F83C0000BF0868092816D958
:100D80001068C0680C780A3C04EB44050724AC40AA
:100D9000A0431468E0600C780A3C04EB44048868C3
:100DA000A0401468E46820431468E06013E0106811
:100DB00000690C7804EB44050724AC40A043146898
:100DC00020610C7804EB44048868A040146824690E
:100DD0002043146820614868072817D21068406BC8
:100DE0000C79641E04EB84051F24AC40A0431468F6
:100DF0006063088880B20C79641E04EB8404A04010
:100E00001468646B20431468606331E048680D28FF
:100E100017D21068006B0C79E41F04EB84051F24C3
:100E2000AC40A04314682063088880B20C79E41FAA
:100E300004EB8404A0401468246B204314682063EE
:100E400016E01068C06A0C790D3C04EB84051F2481
:100E5000AC40A0431468E062088880B20C790D3C75
:100E600004EB8404A0401468E46A20431468E06240
:100E70001E4B1F4C1068A0420AD10868122807D1E7
:100E8000586820F400005860586840F480005860AA
:100E9000174C1068A04222D1164C0868A04202D01C
:100EA000086811281BD1586820F4800058605868E1
:100EB00040F4000058600F4C0868A0420FD10E4863
:100EC00000680E4CB0FBF4F000EB80004000009096
:100ED00002E00098401E009000980028F9D100BF61
:100EE000002082F83C0000BF00BF41E70023014022
:100EF00000200140120000109802002040420F0024
:100F0000704770477047000070B5044600250CB963
:100F1000012070BD1549A06A884200D000BF206C36
:100F200030B9204600F024F80020606484F83C00CA
:100F3000206C00F0100088B9206C20F4885040F03C
:100F4000020020642046FFF717FB00206064206C3D
:100F500020F0020040F00100206400E0012500BF05
:100F6000002084F83C0000BF2846D2E70100000FB3
:100F700010B586B00446142101A8FFF738FA3449A9
:100F80002068884262D100BF00200090314800688C
:100F900040F480702F4908600846006800F48070B3
:100FA000009000BF00BF00BF002000902948143807
:100FB000006840F0010027491439086008460068BD
:100FC00000F00100009000BF00BF00BF00200090B3
:100FD0000846006840F0020008600846006800F01B
:100FE0000200009000BF00BF072001900320029084
:100FF0000020039001A9184800F088FB032001900D
:1010000002900020039001A9144800F07FFB1448CF
:101010001449086000204860002112488160C160C6
:101020004FF480610161490041618900816149118A
:10103000C16100210162416200F046FA08B1FFF788
:10104000E3FD00BF0748A063846300BF06B010BD86
:1010500000200140443802400000024000040240E9
:10106000706402406C540020F8B504460D461646E4
:101070000020009000BF94F83C00012801D102201C
:10108000F8BD012084F83C0000BF2068806800F0B3
:101090000100A0B92068806840F0010021688860E4
:1010A0003D4800683D49B0FBF1F000EB4000009086
:1010B00002E00098401E009000980028F9D12068B6
:1010C000806800F00100002864D0206C40F20161CB
:1010D000884340F4807020642068406800F4806099
:1010E00028B1206C20F4005040F480502064206C23
:1010F00000F48050B0F5805F04D1606C20F00600F1
:10110000606401E00020606400BF002084F83C00BF
:1011100000BF234F2348A16BC8632348A16B086419
:101120002248A16BC8646FF0220021680860206823
:10113000406840F08060216848602068806840F422
:10114000807021688860226802F14C0133462A468B
:10115000A06B00F02FFA786800F01F0058B92068E3
:10116000806800F0405028B92068806840F08040D6
:10117000216888600EE00E49206888420AD1206804
:10118000806800F0405028B92068806840F08040B6
:1011900021688860002073E79802002040420F0019
:1011A00000230140D30400086B0500085105000826
:1011B0000020014070B50446A56D00F0A9FB06466D
:1011C00094F83500022808D08020606500BF002018
:1011D00084F8340000BF012070BD2068006820F052
:1011E0001600216808602068406920F080002168AE
:1011F0004861206C08B9A06C28B12068006820F014
:101200000800216808602068006820F0010021685B
:1012100008600FE000F07CFB801B05280AD9202025
:10122000606500BF002084F8340000BF032084F80C
:101230003500D1E72068006800F001000028E9D1FE
:1012400094F85C103F208840A86000BF002084F81C
:10125000340000BF012084F835000020BCE70146BF
:1012600091F83500022803D080204865012070479E
:10127000052081F835000868006820F001000A6840
:1012800010600020F3E70000F8B50446002000904D
:101290008C4800684FF41651B0FBF1F7A56D2E682D
:1012A00094F85C1008208840304098B120680068AD
:1012B00000F0040070B12068006820F0040021688C
:1012C000086094F85C1008208840A860606D40F0C9
:1012D0000100606594F85C1001208840304068B1DE
:1012E0002068406900F0800040B194F85C10012053
:1012F0008840A860606D40F00200606594F85C1062
:1013000004208840304068B12068006800F0020086
:1013100040B194F85C1004208840A860606D40F0F3
:101320000400606594F85C1010208840304078B369
:101330002068006800F0080050B394F85C1010209A
:101340008840A8602068006800F4802080B1206890
:10135000006800F4002028B9206CC8B12046216C38
:10136000884715E0A06C98B12046A16C88470FE033
:101370002068006800F4807028B92068006820F0B8
:10138000080021680860206C10B12046216C884755
:1013900094F85C10202088403040002865D02068F8
:1013A000006800F0100000285FD094F85C10202046
:1013B0008840A86094F83500052828D12068006886
:1013C00020F01600216808602068406920F0800045
:1013D00021684861206C08B9A06C28B120680068B9
:1013E00020F008002168086094F85C103F208840D5
:1013F000A86000BF002084F8340000BF012084F8FA
:101400003500206D10B12046216D8847F8BD206859
:10141000006800F4802080B12068006800F400209B
:1014200028B9606C10B12046616C88471DE0E06B04
:10143000D8B12046E16B884717E02068006800F4C7
:10144000807068B92068006820F01000216808608A
:1014500000BF002084F8340000BF012084F835006C
:10146000E06B10B12046E16B8847606D38B3606D6A
:1014700000F00100F0B1052084F835002068006814
:1014800020F001002168086000BF0098401C009017
:10149000B84200D905E02068006800F0010000288B
:1014A000F3D100BF00BF002084F8340000BF01204A
:1014B00084F83500E06C10B12046E16C884700BF2D
:1014C000A4E70000980200202DE9F0410446002521
:1014D00000F01EFA074614B90120BDE8F081606AE9
:1014E00000B100BF00BF002084F8340000BF02201C
:1014F00084F835002068006820F001002168086049
:101500000AE000F005FAC01B052805D92020606517
:10151000032084F83500E0E72068006800F001004F
:101520000028EED12068056821480540D4E9010172
:101530000843E16808432169084361690843A169D8
:101540000843E1690843216A08430543606A0428A7
:1015500003D1D4E90B0108430543206805602068E6
:10156000456925F00705606A0543606A04280DD1C6
:10157000A06A0543E06A48B12046FFF7F1F928B1B7
:1015800040206065012084F83500A6E720684561A9
:101590002046FFF7CBF9064694F85C103F208840C0
:1015A000B06000206065012084F83500002094E7D9
:1015B0003F8010F02DE9F04704460D4616461F46C1
:1015C0004FF00008D4F8589000BF94F83400012878
:1015D00002D10220BDE8F087012084F8340000BF6A
:1015E00094F83500012825D1022084F83500002028
:1015F00060653B46324629462046FFF706FA94F8D6
:101600005C103F208840C9F808002068006840F05E
:10161000160021680860206C28B12068006840F03E
:101620000800216808602068006840F00100216817
:10163000086006E000BF002084F8340000BF4FF0CF
:1016400002084046C6E7000070B5044600F060F9A5
:1016500006462546681C10B104480078054400BFC2
:1016600000F056F9801BA842FAD370BDA4020020F6
:1016700010B50446082C2FD11848007838B91848FE
:1016800000880A2823DD0120144908701FE00E217C
:101690003B2002F02FFB12480088124909880840BD
:1016A0000F49088008460088012810D10E4800899B
:1016B000B0F5406F05DD4FF400610C4800F018F9FB
:1016C00005E000224FF40061084800F01AF90448D0
:1016D0000088401C0249088010BD0000FE00002068
:1016E0000401002030000020D22900200000024028
:1016F00010B5044604480068204020B10248046048
:101700002046FFF7B5FF10BD143C0140F8B5034675
:101710000A460025002400200021CDE0012606FA1B
:1017200001F5166806EA0504AC4273D15668012E2D
:1017300008D05668022E05D05668112E02D0566881
:10174000122E13D198684F000326BE40B0434F00BD
:10175000D668BE4030439860586801268E40B0433A
:101760001679C6F300168E4030435860D8684F0093
:101770000326BE40B0434F009668BE403043D86059
:101780005668022E02D05668122E13D1CF0803F1EC
:10179000200656F827004E07F70E0F26BE40B0432E
:1017A0004F07FF0E1669BE403043CF0803F12006F5
:1017B00046F8270018684F000326BE40B04316794C
:1017C00006F003064F00BE4030431860566806F02E
:1017D0008056B6F1805F6ED100BF00260096384E6D
:1017E000366846F48046364F3E603E46366806F41C
:1017F0008046009600BF00BF324E8F0856F8270083
:101800008E07370F0F26BE40B0432F4EB34202D192
:10181000002615E04FE02D4EB34201D101260FE026
:101820002B4EB34201D102260AE02A4EB34201D127
:10183000032605E0284EB34201D1042600E0072626
:101840008F073F0FBE4030431E4E8F0846F82700DB
:10185000224E3068A043566806F48036B6F5803FC5
:1018600000D120431D4E3060361D3068A0435668BD
:1018700006F40036B6F5003F00D12043174E361D62
:101880003060361D3068A043566806F48016B6F501
:10189000801F00D12043114E08363060361D30685D
:1018A000A043566806F40016B6F5001F00D1204389
:1018B0000A4E0C363060491C1029FFF42FAFF8BDDA
:1018C0004438024008380140000002400004024051
:1018D00000080240000C024000100240003C0140A1
:1018E000024613690B400BB1012000E00020704755
:1018F00042690A408A4202D10A04826100E08161A1
:1019000070470AB1816101E00B04836170470000F8
:1019100001480068704700009C02002003480068EE
:101920000349097808440149086070479C02002077
:10193000A402002010B50D48006840F400700B4967
:1019400008600846006840F4806008600846006847
:1019500040F480700860032000F0A2F8002000F03E
:1019600007F800F02BF8002010BD0000003C0240FA
:1019700070B504460E4800784FF47A71B1FBF0F070
:101980000C490968B1FBF0F5284601F0AAF908B145
:10199000012070BD102C07D200222146501E00F0FD
:1019A00041F80548046001E00120F2E70020F0E77B
:1019B000A402002098020020A002002008B500BF69
:1019C000002000900E48006840F480400C490860F8
:1019D0000846006800F48040009000BF00BF00BFD0
:1019E00000200090081F006840F08050091F086028
:1019F0000846006800F08050009000BF00BF08BD9E
:101A00004438024001460846002809DB00F01F0365
:101A100001229A4043099B0003F1E023C3F800210F
:101A200000BF70472DE9F05F80460D46164600273F
:101A300004F0ECFA074639462A46334601F007001F
:101A4000C0F1070ABAF1040F02D94FF0040A01E00D
:101A5000C0F1070AD14600F1040ABAF1070F02D219
:101A60004FF0000A01E0A0F1030AD4464FF0010A4A
:101A70000AFA09FAAAF1010A0AEA020A0AFA0CFAAF
:101A80004FF0010B0BFA0CFBABF1010B0BEA030B54
:101A90004AEA0B042146404604F0C0FABDE8F09F34
:101AA00000BF00F00702064B19684FF6FF0319400C
:101AB000044B0B4343EA0221014B196000BF7047FE
:101AC0000CED00E00000FA0570B504460D460CB9B7
:101AD000012070BD5848006800F00F00A84209D2EC
:101AE00055490D700846006800F00F00A84201D06B
:101AF0000120EEE7207800F0020002281DD12078B6
:101B000000F00400042805D14C48006840F4E0507F
:101B10004A490860207800F00800082805D14748A5
:101B2000006840F46040454908604448006820F07F
:101B3000F000A168084341490860207800F00100E6
:101B4000A8B36068012807D13C4808380068C0F392
:101B50004040B8B90120BCE76068022802D0606844
:101B6000032807D1354808380068C0F3406048B9F9
:101B70000120AEE7314808380068C0F3400008B9DA
:101B80000120A6E72D48006820F0030061680843A3
:101B90002A490860FFF7BCFE064609E0FFF7B8FED9
:101BA000801B41F28831884202D9032091E707E087
:101BB0002248006800F00C006168B0EB810FEDD1A5
:101BC0001D48006800F00F00A84209D91A490D709D
:101BD0000846006800F00F00A84201D0012078E715
:101BE000207800F00400042807D11448006820F48D
:101BF000E050E168084311490860207800F00800CF
:101C0000082808D10D48006820F46040216940EAA6
:101C1000C1000A49086000F03FF808490968C1F3AB
:101C20000311074A515CC84006490860064800682D
:101C3000FFF79EFE00204CE7003C024008380240BF
:101C4000EAAD000898020020A002002001480068C8
:101C5000704700009802002000B5FFF7F7FF044925
:101C60000968C1F38221034A515CC84000BD0000ED
:101C700008380240FAAD000800B5FFF7E7FF044955
:101C80000968C1F34231034A515CC84000BD0000FD
:101C900008380240FAAD00082DE9F047002400257D
:101CA0000026A1462548006800F00C0020B1042859
:101CB00005D008283AD105E0DFF8849039E0DFF854
:101CC000849036E01D48001F006800F03F041B4868
:101CD000001F006800F4800078B11A481749091FF6
:101CE0000968C1F38811A0FB017001462246002358
:101CF0003846FEF7E1FA05460EE011480F49091F84
:101D00000968C1F38811A0FB017001462246002337
:101D10003846FEF7D1FA05460848001F0068C0F3B0
:101D20000140401C4600B5FBF6F902E0DFF81090D8
:101D300000BF00BF4846BDE8F087000008380240F9
:101D40000024F40000127A00F8B504460CB9012012
:101D5000F8BD207800F00100002874D0F948006830
:101D600000F00C0004280DD0F648006800F00C00CC
:101D7000082813D1F348001F006800F48000B0F574
:101D8000800F0BD1EF4808380068C0F340400028AE
:101D900059D06068002856D10120D9E700BF60689B
:101DA000B0F5803F08D1E7480838006840F480303B
:101DB000E449083908601EE06068B0F5A02F0DD135
:101DC000E0480838006840F48020DE49083908609F
:101DD0000846006840F4803008600CE0D9480838B4
:101DE000006820F48030D749083908600846006848
:101DF00020F48020086000BF606890B1FFF788FD84
:101E0000054606E0FFF784FD401B642801D9032046
:101E10009EE7CC4808380068C0F340400028F1D065
:101E200011E0FFF775FD054606E0FFF771FD401B69
:101E3000642801D903208BE7C24808380068C0F342
:101E400040400028F1D1207800F0020002285FD144
:101E5000BC48006800F00C0058B1BA48006800F0B7
:101E60000C0008281CD1B748001F006800F480004F
:101E7000B0B9B44808380068C0F3400020B1E06849
:101E8000012801D0012063E7AE480838006820F03F
:101E9000F800216940EAC100AA490839086037E022
:101EA000E06800B30120A8490860FFF731FD05464E
:101EB00006E0FFF72DFD401B022801D9032047E76C
:101EC000A04808380068C0F340000028F1D09D48C1
:101ED0000838006820F0F800216940EAC1009949FB
:101EE0000839086014E0002097490860FFF710FDEA
:101EF000054606E0FFF70CFD401B022801D9032030
:101F000026E7904808380068C0F340000028F1D167
:101F1000207800F0080008282CD16069A8B10120C1
:101F20008A490860FFF7F4FC054606E0FFF7F0FC7D
:101F3000401B022801D903200AE782486C30006860
:101F4000C0F340000028F1D014E000207F49086071
:101F5000FFF7DEFC054606E0FFF7DAFC401B02282F
:101F600001D90320F4E677486C300068C0F34000E4
:101F70000028F1D1207800F00400042870D1002757
:101F800070483830006800F0805090B900BF0020E1
:101F900000906C483830006840F080506949383112
:101FA00008600846006800F08050009000BF00BF45
:101FB00001276748006800F48070B0B96448006881
:101FC00040F4807062490860FFF7A2FC054606E015
:101FD000FFF79EFC401B022801D90320B8E65C48AD
:101FE000006800F480700028F2D000BFA0680128CB
:101FF00008D154486830006840F001005149683108
:1020000008601DE0A06805280DD14E4868300068C2
:1020100040F004004B49683108600846006840F011
:10202000010008600CE047486830006820F00100BB
:102030004449683108600846006820F004000860E0
:1020400000BFA068A8B1FFF763FC054609E0FFF7F1
:102050005FFC401B41F28831884202D9032077E6B9
:1020600026E0384868300068C0F340000028EED011
:1020700013E0FFF74DFC054608E0FFF749FC401B65
:1020800041F28831884201D9032061E62D48683049
:102090000068C0F340000028EFD1012F07D1294884
:1020A0003830006820F0805026493831086000BF81
:1020B000A069002845D02348006800F00C000828DB
:1020C0005DD0A069022845D100201F490866FFF7AE
:1020D0001FFC054606E0FFF71BFC401B022801D948
:1020E000032035E6174808380068C0F34060002830
:1020F000F1D1D4E907010843616A40EA8111012264
:10210000A06AC2EB500041EA00412C20005D41EA88
:1021100000600C49091F086001200B490866FFF7A1
:10212000F7FB054606E0FFF7F3FB401B022801D949
:1021300003200DE6034808380068C0F3406000281B
:10214000F1D03FE00838024000004742800E47428D
:102150000070004000201C490866FFF7D9FB0546C7
:1021600006E0FFF7D5FB401B022801D90320EFE56D
:1021700016480068C0F340600028F2D122E0A06950
:10218000012800D1E4E51148001D066806F480012D
:10219000E069814214D106F03F01206A81420FD1EB
:1021A00047F6C0703040616A884209D106F4403178
:1021B000A06A814204D106F07061E06A814201D0D8
:1021C0000120C5E50020C3E5000047420038024079
:1021D00070B504460025A06C40B1A06CFEF7EAFF84
:1021E00020B1606D40F0100060650125E06C40B1E9
:1021F000E06CFEF7DFFF20B1606D40F0100060651D
:1022000001252068406820F0030021684860012013
:1022100084F85100284670BD70470000F8B50446A8
:102220002068466820688568C5F3801048B905F0C5
:10223000010030B1C6F3801018B12046216C8847E8
:10224000F8BDC5F3400030B1C6F3C01018B1204648
:10225000616C8847F4E7C5F3401030B9C5F38010CE
:1022600018B9C5F3002000287CD0C6F34010002820
:102270007DD0C5F38010F0B194F8510003280ED042
:10228000606D40F00400606500BF00200090206891
:10229000C068009020688068009000BF0BE000BF1D
:1022A000002000902068C06800902068806800903E
:1022B00000BF00BFC4E7C5F3401088B1606D40F0B7
:1022C0000100606500BF00200090206880680090D9
:1022D0002068006820F040002168086000BF00BF4F
:1022E000C5F3002058B1606D40F00800606500BF84
:1022F0000020009020688068009000BF00BF606DE3
:1023000078B32068406820F0E00021684860012030
:1023100084F8510006F00200022802D006F0010005
:1023200008B32068406820F0030021684860E06C32
:1023300050B11048E16C0865E06CFEF790FF18B1F1
:10234000606D40F040006065A06C50B10948A16C20
:102350000865A06CFEF783FF18B1606D40F0400087
:10236000606503E003E02046FFF756FF68E700BF23
:1023700066E70000AD51000810B504460CB9012015
:1023800010BD606A00B900BF0021A16294F851003D
:1023900028B9002084F85000204600F033F80220CD
:1023A00084F851002068006820F04000216808602F
:1023B000D4E901010843E1680843216908436169E0
:1023C0000843218B01F400710843E1690843216A45
:1023D0000843A16A0843216808600421A06901EA52
:1023E0001040616A0843216848602068C06920F491
:1023F00000602168C86100206065012084F85100F8
:102400000020BDE710B586B00446142101A8FDF7F1
:10241000EEFF7A492068884275D100BF0020009005
:102420007748006840F480507549086008460068A5
:1024300000F48050009000BF00BF00BF002000905B
:102440006F481438006840F001006D491439086085
:102450000846006800F00100009000BF00BFE020C7
:102460000190022002900020039003200490052098
:10247000059001A96348FFF749F96348634908607B
:102480004FF0C0604860002160488160C1604FF437
:1024900080610161002141618161C161016241622C
:1024A000FFF712F808B1FEF7AFFB00BF5748E06432
:1024B000846300BF54484830554908604FF0C060FD
:1024C00048604021524881600021C1604FF4806122
:1024D0000161002141618161C16101624162FEF7D8
:1024E000F3FF08B1FEF790FB00BF4948A064846386
:1024F00000BF002201212320FFF794FA2320FFF7D9
:1025000081FA79E0FFE743492068884274D100BF2F
:10251000002000903A48001F006840F4804038498D
:10252000091F08600846006800F48040009000BF62
:1025300000BF00BF0020009031481438006840F010
:1025400002002F49143908600846006800F00200B4
:10255000009000BF00BF4FF4604001900220029045
:1025600000200390032004900520059001A92A482B
:10257000FFF7CCF829482A4908600020486000216C
:1025800027488160C1604FF4806101610021416191
:102590008161C16101624162FEF796FF08B1FEF7F9
:1025A00033FB00BF1E48E064846300BF1B48183043
:1025B0001C4908600020486040211A4881600021C1
:1025C000C1604FF480610161002141618161C1619D
:1025D00001624162FEF778FF08B1FEF715FB00BF0C
:1025E0001048A064846300BF002201212420FFF76B
:1025F00019FA2420FFF706FA06B010BD003001409A
:102600004438024000000240106402407C55002023
:10261000DC550020003800400004024058600240B1
:102620003C5600209C5600202DE9F843044688467D
:1026300016461D464FF000096068B0F5827F0DD147
:10264000A06858B9042084F85100334642464146F8
:102650002046009500F06DF9BDE8F88300BF94F8BE
:102660005000012801D10220F6E7012084F8500033
:1026700000BFFFF74DF9074694F85100012802D03A
:102680004FF0020978E0B8F1000F00D016B94FF012
:10269000010971E0042084F8510000206065C4F84D
:1026A0003880A687E6872063A086E0862064606481
:1026B000A068B0F5004F05D12068006820F4804084
:1026C000216808602068006800F04000402805D0BC
:1026D0002068006840F0400021680860E068F8B9B0
:1026E0001AE02068806800F0010050B12068007B8B
:1026F000A16B0870A06B401CA063E08F401EE087B8
:102700000AE0FFF705F9C01BA84201D3681C00B915
:1027100015B94FF003092FE0E08F0028E1D11EE04A
:102720001AE02068806800F0010050B12068C0689D
:10273000A16B0880A06B801CA063E08F401EE08727
:102740000AE0FFF7E5F8C01BA84201D3681C00B9F6
:1027500015B94FF003090FE0E08F0028E1D13A46A8
:102760002946204602F0C0FD08B120206065606D5A
:1027700008B14FF0010900BF012084F8510000BFEB
:10278000002084F8500000BF484665E77047704756
:102790002DE9F84F0446884616461D464FF0000ABC
:1027A00000BF94F85000012802D10220BDE8F88F44
:1027B000012084F8500000BFFFF7AAF80746B14691
:1027C00094F85100012802D04FF0020AA7E0B8F1B6
:1027D000000F00D016B94FF0010AA0E0032084F8E2
:1027E000510000206065C4F83080A686E686A063AC
:1027F000A087E08760642064A068B0F5004F05D131
:102800002068006840F48040216808602068006803
:1028100000F04000402805D02068006840F04000EB
:1028200021680860E068B0F5006F2FD1606810B1D2
:10283000B9F1010F09D1206B00882168C860206BB5
:10284000801C2063E08E401EE0861BE020688068CC
:1028500000F0020002280AD1206B00882168C860BD
:10286000206B801C2063E08E401EE0860AE0FFF7AC
:102870004FF8C01BA84201D3681C00B915B94FF02E
:10288000030A4CE0E08E0028E0D12EE0606810B131
:10289000B9F1010F09D1206B007821680873206B12
:1028A000401C2063E08E401EE0861BE020688068AC
:1028B00000F0020002280AD1206B0078216808731A
:1028C000206B401C2063E08E401EE0860AE0FFF78C
:1028D0001FF8C01BA84201D3681C00B915B94FF0FE
:1028E000030A1CE0E08E0028E0D13A462946204643
:1028F00002F044FD08B120206065A06850B900BF17
:10290000002000902068C0680090206880680090D7
:1029100000BF00BF606D08B14FF0010A00BF012089
:1029200084F8510000BF002084F8500000BF5046DA
:102930003CE72DE9FF5F0446884691461D460E9E02
:10294000012002900020019000BF94F8500001285F
:1029500003D1022004B0BDE8F09F012084F85000AC
:1029600000BFFEF7D5FF074694F851B060680390AA
:10297000AA46BBF1010F0BD00398B0F5827F04D1BA
:10298000A06810B9BBF1040F02D002200190DBE077
:10299000B8F1000F03D0B9F1000F00D015B9012034
:1029A0000190D1E094F85100042802D0052084F869
:1029B000510000206065C4F83890E587A587C4F809
:1029C0003080E586A586206460642068006800F099
:1029D0004000402805D02068006840F04000216891
:1029E0000860E068B0F5006F4AD1606810B1BAF1D4
:1029F000010F09D1206B00882168C860206B801C02
:102A00002063E08E401EE08633E02068806800F09E
:102A10000200022810D1E08E70B1029801280BD17B
:102A2000206B00882168C860206B801C2063E08ECA
:102A3000401EE086002002902068806800F00100BF
:102A400068B1E08F58B12068C068A16B0880A06BA6
:102A5000801CA063E08F401EE08701200290FEF7FB
:102A600057FFC01BB04204D3701C10B1032001906B
:102A70006AE0E08E0028C8D1E08F0028C5D14AE086
:102A8000606810B1BAF1010F09D1206B007821689C
:102A90000873206B401C2063E08E401EE08634E00B
:102AA0002068806800F00200022810D1E08E70B12A
:102AB000029801280BD1206B007821680873206BE5
:102AC000401C2063E08E401EE086002002902068BB
:102AD000806800F0010068B1E08F58B12068C068DC
:102AE000A16B0870A06B401CA063E08F401EE087C4
:102AF00001200290FEF70CFFC01BB04201D3701CF6
:102B000000B916B9032001901EE0E08E0028C7D15D
:102B1000E08F0028C4D13A463146204602F02EFC10
:102B200020B101200190202060650DE0A06850B91F
:102B300000BF002000902068C06800902068806876
:102B4000009000BF00BF00BF012084F8510000BF0B
:102B5000002084F8500000BF0198FBE62DE9F04703
:102B600004460E4617461D464FF0000A00BF94F873
:102B70005000012802D10220BDE8F087012084F82E
:102B8000500000BF94F85180D4F80490B8F1010FC0
:102B90000AD0B9F5827F04D1A06810B9B8F1040F4A
:102BA00002D04FF0020A7DE00EB107B115B94FF027
:102BB000010A77E094F85100042802D0052084F837
:102BC0005100002060652663A586E586A763A5877A
:102BD000E5872064606494F85100042806D13548E4
:102BE000E16C08643448E16CC86305E03348E16C8B
:102BF00008643348E16CC8633248E16CC864002063
:102C0000E16C0865E38FD4F800C00CF10C01A26BF5
:102C1000E06CFEF7CFFC48B1606D40F010006065DD
:102C20004FF0010A012084F851003BE02068406821
:102C300040F00100216848600020A16C0864A16C8C
:102C4000C863A16CC864A16C0865E38ED4F800C0A9
:102C50000CF10C02216BA06CFEF7ACFC48B1606D6E
:102C600040F0100060654FF0010A012084F8510027
:102C700018E02068006800F04000402805D0206877
:102C8000006840F04000216808602068406840F01B
:102C90002000216848602068406840F002002168F8
:102CA000486000BF00BF002084F8500000BF5046BD
:102CB00062E70000E951000805520008F7510008DA
:102CC00081520008C151000810B50446034920682C
:102CD000884201D101F04CF810BD000000300140E5
:102CE000704770B504462546681EB0F1807F01D359
:102CF00001200FE0681E4FF0E02148610F214FF0E6
:102D0000FF3003F08BF900204FF0E02188610720AD
:102D10000861002070BD70477047000030B5024662
:102D20000B4600BF92F83C00012801D1022030BDC3
:102D3000012082F83C0000BF022082F83D001068AC
:102D400044681068816824F07004186804431068AF
:102D50004460144D1068A84213D01068B0F1804F41
:102D60000FD0114D1068A8420BD0104D1068A8422A
:102D700007D00F4D1068A84203D00E4D1068A8422E
:102D800005D121F08001586801431068816001205D
:102D900082F83D0000BF002082F83C0000BF00BF69
:102DA000C5E70000000001400004004000080040AA
:102DB000000C00400040014010B504460CB9012051
:102DC00010BD94F83D0028B9002084F83C0020464E
:102DD00000F00CF8022084F83D00211D206802F06C
:102DE00047FC012084F83D000020E9E738B504469F
:102DF0001949206888420FD100BF00200090174871
:102E0000006840F00400154908600846006800F0BA
:102E10000400009000BF1DE011492068884219D1CC
:102E200000BF002000900D48001D006840F4803075
:102E30000A49091D08600846006800F480300090C7
:102E400000BF00BF002201211820FEF7EBFD182073
:102E5000FEF7D8FD38BD00000008004040380240B1
:102E60000040014001460868C06840F001000B685E
:102E7000D8600868806800F00702062A05D0086854
:102E8000006840F001000B681860002070472DE9D1
:102E9000F04104460D4600BF94F83C00012802D1E1
:102EA0000220BDE8F081012084F83C0000BF022030
:102EB00084F83D002068866826F0770626F47F4671
:102EC000206886602868502833D00CDC202850D039
:102ED00004DC00284BD0102851D149E0302849D0DB
:102EE00040284CD139E060282DD0702807D0B0F5AB
:102EF000805F03D0B0F5005F41D10DE040E0D5E93F
:102F000002136A68206802F016FC2068866846F0A2
:102F100077062068866033E0D5E902136A68206886
:102F200002F009FC2068806840F4804021688860D5
:102F300026E0EA686968206802F0CEFC502120682B
:102F400002F004FC1CE0EA686968206802F0D7FC23
:102F50006021206802F0FAFB12E0EA6869682068E4
:102F600002F0BAFC4021206802F0F0FB08E000BF4C
:102F700000BF00BF2968206802F0E8FB00E000BF46
:102F800000BF012084F83D0000BF002084F83C0011
:102F900000BF00BF85E72DE9F04104460D4614B996
:102FA0000120BDE8F08194F83D0028B9002084F8A4
:102FB0003C00204600F046F8022084F83D002068DE
:102FC000806844F20701884321688860211D2068D9
:102FD00002F04EFB2068D0F80880206886692068DF
:102FE000076A286840EA080840F203308643A96966
:102FF000A86840EA0120064340F60C4086434FF2A1
:10300000F0008643E969E86840EA01200643286940
:103010000001296A40EA0130064327F0220727F021
:1030200088076969686840EA011007432068C0F8AA
:1030300008802068866120680762012084F83D00CE
:103040000020AEE710B586B00446142101A8FDF7B4
:10305000CEF92068B0F1804F4CD100BF0020009025
:103060003F48006840F001003D490860084600689C
:1030700000F00100009000BF00BF00BF00200090E2
:1030800037481038006840F00100354910390860B1
:103090000846006800F00100009000BF00BF00BFBC
:1030A000002000900846006840F0020008600846D2
:1030B000006800F00200009000BF00BF4FF4004025
:1030C00001900220029000200390049001200590BE
:1030D00001A92448FEF71AFB082001900220029063
:1030E0000020039004900120059001A91E48FEF7DE
:1030F0000DFB32E01D49206888422ED100BF002020
:1031000000901748006840F0020015490860084622
:10311000006800F00200009000BF00BF00BF002068
:1031200000900F481038006840F002000C49103938
:1031300008600846006800F00200009000BF00BF71
:103140003020019002200290002003900490022081
:10315000059001A90448FEF7D9FA06B010BD000099
:1031600040380240000002400004024000040040D9
:1031700030B504460D4615B1042D0CD105E00122F1
:103180000021206802F0C6FA10E001220421206824
:1031900002F0C0FA0AE001220021206802F0BAFA27
:1031A00001220421206802F0B5FA00BF00BF2068A8
:1031B000006840F0010021680860002030BD7047C1
:1031C00010B5044620680069C0F34000D8B12068FB
:1031D000C068C0F34000B0B16FF002002168086120
:1031E000012020772068806900F0030018B1204694
:1031F000FFF7E5FF05E0204600F0E0F8204600F08C
:103200007DF90020207720680069C0F38000D8B1E4
:103210002068C068C0F38000B0B16FF0040021687E
:103220000861022020772068806900F4407018B19E
:103230002046FFF7C4FF05E0204600F0BFF8204617
:1032400000F05CF90020207720680069C0F3C0001E
:10325000D8B12068C068C0F3C000B0B16FF00800FA
:1032600021680861042020772068C06900F003000D
:1032700018B12046FFF7A3FF05E0204600F09EF8B6
:10328000204600F03BF90020207720680069C0F359
:103290000010D8B12068C068C0F30010B0B16FF062
:1032A000100021680861082020772068C06900F4B8
:1032B000407018B12046FFF782FF05E0204600F07D
:1032C0007DF8204600F01AF9002020772068006978
:1032D00000F0010058B12068C06800F0010030B172
:1032E0006FF0010021680861204600F02FF9206886
:1032F0000069C0F3C01058B12068C068C0F3C010A6
:1033000030B16FF08000216808612046FFF703FDAF
:1033100020680069C0F3801058B12068C068C0F30D
:10332000801030B16FF0400021680861204600F045
:1033300045F920680069C0F3401058B12068C068A2
:10334000C0F3401030B16FF02000216808612046C2
:10335000FFF7E2FC10BD000010B586B00446142152
:1033600001A8FDF744F81249206888421DD100BF2A
:10337000002000900F48006840F002000D490860EE
:103380000846006800F00200009000BF00BF4FF444
:10339000707001900220029000200390049002209F
:1033A000059001A90448FEF7B1F906B010BD000070
:1033B000000800403038024000040240704770B5F9
:1033C00004460D46164600BF94F83C00012801D182
:1033D000022070BD012084F83C0000BF022084F868
:1033E0003D0036B1042E1BD0082E31D00C2E5ED1FC
:1033F00045E02946206802F0B3F92068806940F072
:103400000800216888612068806920F00400216834
:10341000886120688069296908432168886147E0DC
:103420002946206802F0CCF92068806940F40060E9
:10343000216888612068806920F480602168886143
:1034400020688069296940EA0120216888612FE0AD
:103450002946206802F0E8F92068C06940F00800B9
:103460002168C8612068C06920F004002168C86133
:103470002068C069296908432168C86118E02946A5
:10348000206802F005FA2068C06940F400602168F5
:10349000C8612068C06920F480602168C861206824
:1034A000C069296940EA01202168C86100E000BFC5
:1034B00000BF012084F83D0000BF002084F83C00DC
:1034C00000BF00BF85E710B504460CB9012010BD50
:1034D00094F83D0028B9002084F83C00204600F014
:1034E0000CF8022084F83D00211D206802F0C0F88D
:1034F000012084F83D000020E9E770477047000094
:1035000070B504460E4601223146206802F002F9E9
:103510000D492068884201D1012000E0002028B137
:103520002068406C40F4004021684864206880684E
:1035300000F00705062D05D02068006840F0010066
:1035400021680860002070BD0000014010B50446ED
:1035500016492068884228D104F024FB14480078DA
:1035600002280DD012480078012809D010480078B0
:10357000032805D10F480078012801D105F020F972
:103580000B480078401C00F00700094908700A4801
:103590000088401C0849088008460088B0F5C87FAC
:1035A00003DD0020088004F0C5FF10BD004001408D
:1035B00001010020FE00002002010020704770B5CC
:1035C0000446002520684069C0F3C01594F839000E
:1035D00021280ED16DB12068406920F0800021685B
:1035E0004861206B10B1206BFDF7E4FD204602F02E
:1035F00038FA20684069C0F3801594F83A00222810
:103600000ED16DB12068406920F04000216848610A
:10361000606B10B1606BFDF7CDFD204602F001FA42
:10362000002070BD70B504460C492068884213D153
:103630000B48FFF7C4FF0A4800680568084800689F
:103640004568002007490880074908704FF4006268
:103650000649034800F07EF970BD000000100140EB
:10366000FC5700200200002004000020A8020020D7
:103670002DE9F0470446206805682068C668206880
:1036800047694FF00008C14605F00F08B8F1000F78
:103690000AD105F0200038B106F0200020B1204604
:1036A00002F0E9F9BDE8F087B8F1000F72D007F039
:1036B000010018B906F4907000286BD005F00100E5
:1036C00030B106F4807018B1E06B40F00100E063A7
:1036D00005F0040030B107F0010018B1E06B40F0D4
:1036E0000200E06305F0020030B107F0010018B1FC
:1036F000E06B40F00400E06305F0080048B106F01C
:10370000200010B907F0010018B1E06B40F008008C
:10371000E063E06B70B305F0200028B106F02000F4
:1037200010B1204602F0A7F920684069C0F3801963
:10373000E06B00F0080010B9B9F1000F23D020466B
:1037400002F06FF92068406900F04000402816D16F
:103750002068406920F0400021684861606B50B1EA
:103760001748616B0865606BFDF779FD10B1606B00
:10377000016D88470CE02046FFF754FF08E0204623
:10378000FFF750FF04E02046FFF74CFF0020E06306
:1037900088E7FFE705F0800030B106F0800018B13F
:1037A000204602F0AFFB7DE705F0400030B106F0A7
:1037B000400018B1204602F044F973E700BF71E7FA
:1037C0002759000810B504460CB9012010BDA069A6
:1037D00000B100E000BF94F8390028B9002084F857
:1037E0003800204600F028F8242084F839002068AA
:1037F000C06820F400502168C860204602F08EF9AD
:103800002068006920F490402168086120684069C0
:1038100020F02A00216848612068C06840F4005008
:103820002168C8600020E063202084F8390084F813
:103830003A000020CAE7000010B586B00446142103
:1038400001A8FCF7D4FD3D492068884274D100BF2F
:10385000002000903A48006840F0100038490860A5
:103860000846006800F01000009000BF00BF00BFD5
:103870000020009032481438006840F001003049C0
:10388000143908600846006800F00100009000BF8D
:1038900000BF4FF4C060019002200290002003900E
:1038A000032004900720059001A92648FDF72EFF6C
:1038B0002548264908604FF00060486000212348F1
:1038C0008160C1604FF480610161002141618161CB
:1038D000C16101624162FDF7F7FD08B1FDF794F99E
:1038E00000BF1A486063846300BF174878301849E6
:1038F00008604FF000604860402115488160002159
:10390000C1604FF480610161002141618161C16149
:1039100001624162FDF7D8FD08B1FDF775F900BFFE
:103920000B482063846300BF002203212520FEF79B
:1039300079F82520FEF766F806B010BD00100140AA
:103940004438024000000240406402403C580020DD
:103950009C58002077B581B00446154694F83A008B
:10396000202850D1029800B115B9012004B070BDD3
:1039700000BF94F83800012801D10220F6E70120A9
:1039800084F8380000BF0298A062A5850020E0639B
:10399000222084F83A001D48616BC8631C48616BA3
:1039A00008641C48616BC8640020616B086502AE46
:1039B00032682368191D2B46606BFDF7FBFD00BFC5
:1039C0000020009020680068009020684068009007
:1039D00000BF00BF00BF002084F8380000BF20688F
:1039E000C06840F480702168C8602068406940F079
:1039F0000100216848612068406940F0400021686A
:103A000048610020B2E70220B0E700008B590008AF
:103A1000D15900083B59000870B504460C4920688C
:103A2000884213D10B48FFF7CAFD0A4800680568B1
:103A30000848006845680020074908800749087061
:103A40004FF4006206490348FFF784FF70BD000091
:103A500000100140FC57002002000020040000205C
:103A6000A802002070470000F7B50446154694F8F8
:103A7000390020283DD1019800B10DB90120FEBDCB
:103A800000BF94F83800012801D10220F7E7012097
:103A900084F8380000BF01982062A584E5840020E6
:103AA000E063212084F839001348216BC863134870
:103AB000216B08641248216BC8640020216B0865E3
:103AC00001AE23681A1D31682B46206BFDF772FD8D
:103AD0006FF040002168086000BF002084F83800C3
:103AE00000BF2068406940F08000216848610020E4
:103AF000C5E70220C3E70000DF590008155A000897
:103B00003B59000810B504464FF4006202490348CF
:103B1000FFF720FF10BD0000A8020020FC57002086
:103B2000704700BFFEE7000010B5012210210648D3
:103B3000FDF7E7FE002210210348FDF7E2FE142006
:103B4000FCF7A0FF10BD00000000024010B502E02D
:103B50000A20FDF779FD752000F0F0F86828F7D10C
:103B6000012204216A2000F01DF90A20FDF76CFDF6
:103B7000594806F020F9002206216B2000F012F9C6
:103B80006420FDF761FD0A20FDF75EFD012207219B
:103B90006B2000F007F9FA20FDF756FD02E00A203D
:103BA000FDF752FD752000F0C9F86828F7D1002212
:103BB00006216B2000F0F6F86420FDF745FD012397
:103BC000032202216B2000F00EF96420FDF73CFD7A
:103BD000002203216B2000F0E5F80A20FDF734FDF8
:103BE0000323022204211B2000F0FDF80A20FDF728
:103BF0002BFD0323022204211C2000F0F4F80A20EC
:103C0000FDF722FD0323022200211D2000F0EBF826
:103C10000A20FDF719FD0321192000F011F90A20EF
:103C2000FDF712FD0223032219461A2000F0DBF8EB
:103C30000A20FDF709FD002417E0C4EBC401274A60
:103C400002EB8100DFED260A9FED260A04F021F940
:103C5000C4EBC401244A02EB8100F3EE0E0A9FED8F
:103C6000210A04F016F9601CC4B2032CE5DB002223
:103C70000721372000F096F80A20FDF7E5FC002226
:103C80000621372000F08EF80A20FDF7DDFC002227
:103C90000521372000F086F80A20FDF7D5FC012227
:103CA0000421372000F07EF80A20FDF7CDFC012228
:103CB0000021382000F076F80A20FDF7C5FC3820F6
:103CC00000F03CF8094908800820094908600920EB
:103CD000FDF798FE10BD0000042B00206C4300206F
:103CE0000000A04200007A44184300200C0100208C
:103CF000143C014070B505460C461F2C01DD022026
:103D000070BD45F080000A490870FFF70DFF631C85
:103D1000084A07490848FEF721FF30B100F0A4F82F
:103D20000548FEF755FA0120EAE70020E8E7000021
:103D3000C42A0020E42A0020CC5400201CB50446EC
:103D400044F080000090FFF7EFFE642301226946F3
:103D50000648FEF71DFD6423012201A90348FEF772
:103D600063FC00F081F89DF804001CBDCC540020D9
:103D700010B50848FEF72CFA00F076F8064805F072
:103D8000E9FB9FED060A03F005FD012004490870D8
:103D900010BD0000CC540020E52A00206F12833BA8
:103DA00050010020F8B506460C4615463046FFF790
:103DB000C5FF00902DB10120A0409DF800100843E0
:103DC00005E00120A0409DF8001021EA0000C0B2EB
:103DD0000090C820FCF756FE9DF80010304600F019
:103DE0002FF80120F8BD2DE9F04780460C46164615
:103DF0001D464046FFF7A2FF0746601CFF2101FA5F
:103E000000F0C4F108013144491EFF220A41104369
:103E100000F0FF09C6F1080005FA00F0C5B2C4F1D0
:103E20000700054107EA09072F43C820FCF72AFECF
:103E30003946404600F004F80120BDE8F087000054
:103E400013B5FFF771FE6423012269460548FEF7AA
:103E50009FFC6423012201A90248FEF799FC00F0AF
:103E600003F81CBDCC54002010B51420FCF70AFE4A
:103E7000012210210148FDF744FD10BD0000024061
:103E80001FB5002000900190029003902C482D490E
:103E900008604FF48030486000212A488160012189
:103EA00001610176002180F82010C16226498162FB
:103EB0000021C1600521C161012180F8301000217D
:103EC0004161FDF721F808B1FCF79EFE0820009043
:103ED000012001900220029069461A48FCF73EFF3B
:103EE00008B1FCF791FE0120009002200190694684
:103EF0001448FCF733FF08B1FCF786FE022000905F
:103F00000320019069460F48FCF728FF08B1FCF731
:103F10007BFE002000900420019069460948FCF7D0
:103F20001DFF08B1FCF770FE0920009005200190EC
:103F300069460448FCF712FF08B1FCF765FE1FBD97
:103F400000200140245400200100000F08B500BFEC
:103F5000002000902A48006840F48000284908604A
:103F60000846006800F48000009000BF00BF00BF5A
:103F7000002000900846006840F4001008600846E1
:103F8000006800F40010009000BF00BF0022012173
:103F90000E20FDF747FD0E20FDF734FD0022012124
:103FA0000F20FDF73FFD0F20FDF72CFD0022012122
:103FB0003820FDF737FD3820FDF724FD00220121D0
:103FC0003A20FDF72FFD3A20FDF71CFD00220121CC
:103FD0003B20FDF727FD3B20FDF714FD00220121CA
:103FE0003C20FDF71FFD3C20FDF70CFD00220121C8
:103FF0004620FDF717FD4620FDF704FD08BD000033
:104000003038024000B587B0142102A8FCF7EFF960
:1040100000BF002001903F48006840F004003D4987
:1040200008600846006800F00400019000BF00BF6F
:1040300000BF002001900846006840F001000860C1
:104040000846006800F00100019000BF00BF00BFFB
:10405000002001900846006840F002000860084611
:10406000006800F00200019000BF00BF00224FF482
:1040700060412948FDF745FC00224FF401612748C3
:10408000FDF73FFC00224FF4A0512548FDF739FC15
:104090004FF46040029001200390002004900590AE
:1040A00002A91D48FDF732FB082002901D4803902D
:1040B0000020049002A91948FDF728FB4FF4016085
:1040C00002900120039000200490059002A913485B
:1040D000FDF71CFB4FF4A05002900120039000203C
:1040E0000490059002A90E48FDF710FB4FF4805094
:1040F000029000200390049002A90848FDF706FBF7
:10410000002202210920FDF78DFC0920FDF77AFC31
:1041100007B000BD303802400008024000000240F5
:10412000000402400000211010B50E480E4908603E
:104130004FF48270486000210B488160C1600161CA
:1041400041614FF4007181613021C1610021016240
:10415000416281620A21C162FEF70EF908B1FCF7E3
:1041600053FD10BD00300140CC54002010B50E4866
:104170000E4908604FF48270486000210B4881604E
:10418000C160016141614FF4007181611821C16119
:1041900000210162416281620A21C162FEF7ECF8EE
:1041A00008B1FCF731FD10BD003800402455002057
:1041B00000B58BB0242102A8FCF719F9002000906B
:1041C00001904FF0804019490860002048600021AC
:1041D000164881604FF6FF71C16000210161816165
:1041E00003200290002003900120049000200590FD
:1041F00006200690002007900120089000200990DA
:1042000006200A9002A90948FEF7C5FE08B1FCF78E
:10421000FBFC00200090019069460448FEF77EFDFB
:1042200008B1FCF7F1FC0BB000BD0000FC5600200B
:1042300000B58BB0242102A8FCF7D9F8002000902B
:10424000019019481949086000204860002117486A
:1042500081604FF6FF71C16000210161816103201F
:104260000290002003900120049000200590062079
:104270000690002007900120089000200990062059
:104280000A9002A90948FEF786FE08B1FCF7BCFCBB
:1042900000200090019069460448FEF73FFD08B1F8
:1042A000FCF7B2FC0BB000BD000400403C570020FE
:1042B00000B58DB0002009900A900B900C900790EB
:1042C00008901C216846FCF792F82C482C4908609D
:1042D0000020486000212A48816041F28731C16096
:1042E000002101618161FEF767FD08B1FCF78CFCDC
:1042F0004FF48050099009A92148FEF7C8FD08B184
:10430000FCF782FC1E48FFF7DEF808B1FCF77CFCE6
:1043100000200790089007A91948FEF7FFFC08B194
:10432000FCF772FC70200090002001900290049035
:10433000002269461248FFF742F808B1FCF764FC16
:10434000042269460E48FFF73AF808B1FCF75CFC16
:10435000082269460A48FFF732F808B1FCF754FC16
:104360000C2269460648FFF72AF808B1FCF74CFC16
:104370000348FEF7F1FF0DB000BD0000000800404B
:104380007C5700201FB50020009001900290039000
:104390000E480F4908603120486000210C488160B8
:1043A000F921C160002101618161FEF705FD08B1BD
:1043B000FCF72AFC4FF48050009069460448FEF751
:1043C00066FD08B1FCF720FC1FBD00000040014065
:1043D000BC57002010B50B480B4908604FF416502D
:1043E0004860002108488160C16001610C21416181
:1043F00000218161C161FFF7E5F908B1FCF704FC18
:1044000010BD000000100140FC57002000BFFEE777
:1044100070B55C4840795B49097940EA01205A4906
:1044200008805A4800880988084464287EDA55487C
:1044300000785749087053484078487052490888B6
:10444000C11700EB5171CD104F490888C11700EB1F
:104450005171C910A0EBC10109B1681C85B24C496A
:104460008D70002461E0E11704EB5171C910A4EBD9
:10447000C10141B900222046E11704EB5171C91076
:10448000C91C434B5A54E11704EB5171C910C91CA4
:104490003F4A515C4A102046E11704EB5171C910A4
:1044A000C91C3B4B5A54E11704EB5171C910C91C8C
:1044B0001A46515C354A12882244364B53F8222062
:1044C0001268802303EAC2121143E21704EB52720E
:1044D000D210D21C2E4B99542B480088401EA0426B
:1044E00021D129490888C11700EB5171C910A0EBEF
:1044F000C101C1B1E21704EB5272D210D21C9A5C16
:10450000214B1988CB1701EB5373DB10A1EBC303CD
:10451000C3F108031A412046E31704EB5373DB1081
:10452000DB1C1B4EF254601C84B200E01AE01648FB
:104530000088844297DBE81C81B21548FCF7A2F999
:104540001549088008460088010A114AE81C1154E0
:1045500011480178281D1154681DC1B2104604F09D
:1045600023F90EE0074800780949087005484078AB
:1045700040F080004870022088700321044804F055
:1045800013F970BDA80200200A00002008000020D6
:10459000A80A0020381400200C00002070B55C48E8
:1045A00040795B49097940EA01205A4908805A4814
:1045B00000880988084464287EDA554800785749FD
:1045C000087053484078487052490888C11700EB7A
:1045D0005171CD104F490888C11700EB5171C910B6
:1045E000A0EBC10109B1681C85B24C498D70002453
:1045F00061E0E11704EB5171C910A4EBC10141B9AD
:1046000000222046E11704EB5171C910C91C434B2D
:104610005A54E11704EB5171C910C91C3F4A515C4F
:104620004A102046E11704EB5171C910C91C3B4BDD
:104630005A54E11704EB5171C910C91C1A46515C58
:10464000354A12882244364B53F8222012688023C0
:1046500003EAC2121143E21704EB5272D210D21CC9
:104660002E4B99542B480088401EA04221D1294945
:104670000888C11700EB5171C910A0EBC101C1B18D
:10468000E21704EB5272D210D21C9A5C214B1988AB
:10469000CB1701EB5373DB10A1EBC303C3F108038A
:1046A0001A412046E31704EB5373DB10DB1C1B4E4F
:1046B000F254601C84B200E01AE01648008884427C
:1046C00097DBE81C81B21548FCF7DCF81549088037
:1046D00008460088010A114AE81C11541148017863
:1046E000281D1154681DC1B2104604F05DF80EE09B
:1046F00007480078094908700548407840F0800074
:104700004870022088700321044804F04DF870BD01
:10471000A80200200A00002008000020A80A0020AB
:10472000A81200200C00002010B539484079384903
:10473000097940EA0120374908803748008809880C
:104740000844B0F5806F53DA314800783349087077
:104750002F48407848702F4800784006000E887037
:10476000002419E02C48008820442D4951F82000ED
:104770000088000A042101EB4401284A50542648CD
:1047800000882044264951F820000078032101EBDD
:1047900044015054601CC4B21E4800888442E1DBCE
:1047A0001C480088032202EB400081B21B48FCF742
:1047B00069F81C49088008460088010A15480088E5
:1047C000032202EB4000154A1154164801781148A3
:1047D0000088042202EB4000104A11540D48007872
:1047E000052202EB4000C1B20C4803F0DDFF0EE0F1
:1047F00007480078094908700548407840F0800073
:104800004870022088700321044803F0CDFF10BDDA
:10481000A80200200A00002008000020A80A0020AA
:10482000C81500200C00002010B528480088642816
:104830003CDA27480079FF2803D025484079FF2833
:1048400007D101202349214A128851F8221008601B
:1048500006E000201F491D4A128851F82210086006
:104860001B4800781C49087019484078487018485F
:10487000807888701648C078C8701548007908712B
:1048800013484079487106211348FBF7FBFF134991
:10489000088008460088000A0F4988710F48007890
:1048A000C87108210C4803F07FFF0EE0084800782B
:1048B000094908700648407840F08000487002209E
:1048C00088700321044803F06FFF10BD080000202A
:1048D000A802002038140020A80A00200C000020A4
:1048E00010B51F48007900021E491F4A128851F86E
:1048F000221008801B481C49098850F821000088B4
:104900001749497908431749174A128851F8221064
:10491000088013480078154908701148407848709D
:104920000F48807888700E48C078C8700C480079AD
:1049300008710B484079487106210C48FBF7A2FF2B
:104940000B49088008460088000A08498871084811
:104950000078C8710821054803F026FF10BD00004B
:10496000A8020020C815002008000020A80A002086
:104970000C00002010B53B4840793A49097940EADB
:10498000012039490880394800880988084464288A
:1049900058DA00242CE0E11704EB5171C910C91D4D
:1049A000304A515C01F0010141B101202F490988D1
:1049B00021442F4A52F82110086007E000202B49BB
:1049C000098821442A4A52F821100860E11704EBB3
:1049D0005171C910C91D234A515C4A102046E11784
:1049E00004EB5171C910C91D1E4B5A54601C84B28E
:1049F0001D4800888442CEDB1A4800781D490870A3
:104A00001848407848701748807888701548C078F2
:104A1000C87014480079087112484079487106211D
:104A20001448FBF72FFF1449088008460088000A45
:104A30001049887110480078C87108210D4803F0AA
:104A4000B3FE0EE0074800780A4908700548407830
:104A500040F080004870022088700321054803F070
:104A6000A3FE10BDA80200200A00002008000020BC
:104A700038140020A80A00200C00002010B5374888
:104A800040793649097940EA01203549088035489E
:104A9000008809880844B0F5806F4EDA002422E0CF
:104AA000072000EB44002D49085C2E490988214469
:104AB0002D4A52F8211008802A48008820441146C7
:104AC00051F820000088082101EB4401234A515C81
:104AD00040EA0120234909882144234A52F8211041
:104AE0000880601CC4B21E4800888442D8DB1B4882
:104AF00000781E4908701948407848701748807837
:104B000088701648C078C870144800790871134836
:104B10004079487106211548FBF7B4FE1449088016
:104B200008460088000A1149887111480078C87148
:104B300008210E4803F038FE0EE0084800780B49C3
:104B400008700648407840F0800048700220887065
:104B50000321064803F028FE10BD0000A802002033
:104B60000A00002008000020C8150020A80A002024
:104B70000C00002010B55A4A5A4B1A60921C5A6019
:104B8000921C9A60921CDA60574A1A61921C5A6110
:104B9000921C9A61921CDA61544A1A62544A5A620F
:104BA000002109E0534A02EB410301F10A024D4C96
:104BB00044F822304A1CD1B20529F3DB4E4A494B56
:104BC000DA63921C1A644D4AC3F80028002061E0A1
:104BD00000EBC0034A4A02EB8302103200EB4003B1
:104BE0004FF4007404EB43035B1C3E4C44F8232059
:104BF00000EBC003424A02EB8302123200EB400397
:104C00004FF4007404EB43039B1C364C44F8232000
:104C100000EBC0033A4A02EB8302143200EB40037C
:104C20004FF4007404EB4303DB1C2E4C44F82320A8
:104C300000EBC003324A02EB8302163200EB400362
:104C40004FF4007404EB43031B1D264C44F823204F
:104C500000EBC0032A4A02EB8302183200EB400348
:104C60004FF4007404EB43035B1D1E4C44F82320F7
:104C700000EBC003224A02EB83021A3200EB40032E
:104C80004FF4007404EB43039B1D164C44F823209F
:104C9000421CD0B204289BDB1A4A124BC3F864288A
:104CA000194AC3F86828194AC3F86C28002014E090
:104CB00000210EE0164A02EB401202EB41024FF4D3
:104CC000407303EB00130B44064C44F823204A1CAA
:104CD000D1B21029EEDB421CD0B20428E8DB10BDB3
:104CE0006C000020C815002074000020DA29002084
:104CF0007C020020C8250020F04300200600002090
:104D0000342A002086020020880200208A02002027
:104D10007E0000207047D0ED000A90ED011A70EE81
:104D2000C10AB0EE600AD0ED070A70EE800AC0ED4D
:104D3000070AD0ED050A90ED071A60EE810A90EDA2
:104D4000041A41EE000A90ED061AD0ED021A70EE38
:104D5000611A41EE210AC0ED080A80ED020A90EDC9
:104D6000081A00EE901AF8EEE00AB4EEE01AF1EE3E
:104D700010FA05DD00EE901AF8EEE00AC0ED080A20
:104D800090ED081A4A4200EE902AF8EEE00AB4EEDE
:104D9000E01AF1EE10FA06D24A4200EE902AF8EE3E
:104DA000E00AC0ED080A704700B50021554800F040
:104DB000ADF85548B0F900105248243000F0A6F87C
:104DC00050482C3890ED130AD0ED1C0A30EE600AE2
:104DD000BDEEC00A10EE100A01B24A482C3801821A
:104DE000B0F9100000281ADB002046492C39087160
:104DF0000846B0F9100041F28831884202DB414890
:104E00002C3801823F482C38B0F91000B0F57A7F79
:104E100025DC4FF47A713B482C3801821FE00120D9
:104E200038492C3908710846008A404201B2354899
:104E30002C380182B0F9100041F28831884202DB3F
:104E400030482C3801822F482C38B0F91000B0F5CA
:104E50007A7F04DC4FF47A712A482C380182294881
:104E60002C3890ED130AD0ED1C0A30EE200ABDEE6E
:104E7000C00A10EE100A01B222482C388184B0F921
:104E80002400002819DB00211E482C380176B0F9D7
:104E9000240041F28831884202DB1A482C38818490
:104EA00018482C38B0F92400B0F57A7F24DC4FF490
:104EB0007A7114482C3881841EE0012111482C3865
:104EC0000176808C404201B20E482C388184B0F9C2
:104ED000240041F28831884202DB0A482C38818460
:104EE00008482C38B0F92400B0F57A7F04DC4FF480
:104EF0007A7104482C38818402F066FF04F0CEFCFD
:104F000000BD0000342A00200601002090ED002A98
:104F100001EE901AF8EEE11A72EE211A90ED012AD4
:104F200071EEC21AB0EE610AD0ED021A70EE611A8B
:104F3000F0EE610AD0ED031A70EEE11AB0EE611ADC
:104F4000F1EE041AB4EEE10AF1EE10FA06DDF1EE2C
:104F5000041A70EE611AB0EE610A11E0F9EE041A5B
:104F6000B4EEE10AF1EE10FA06D2F1EE041A70EE98
:104F7000211AB0EE610A03E0DFED281AB0EE610AF3
:104F8000DFED271AB4EEE10AF1EE10FA06DCDFEDF0
:104F9000251AB4EEE10AF1EE10FA03D20022224BF8
:104FA0001A7002E00122204B1A7080ED020AC0ED57
:104FB000030AD0ED041A61EEA01AD0ED052A1A4AB0
:104FC000127802EE102AB8EE422A22EE822A42EE2F
:104FD000001A90ED062A42EE011A90ED082A71EEB1
:104FE000821AC0ED081AD0ED081A9FED102AF4EECF
:104FF000C21AF1EE10FA03DDDFED0C1AC0ED081A4B
:10500000D0ED081A9FED0A2AF4EEC21AF1EE10FA5A
:1050100003D2DFED071AC0ED081A70470000000048
:105020000000FA430000FAC30801002000409C453C
:1050300000409CC510B5FBF719FC04224A496420C6
:10504000FBF7F4FD04224849091D6820FBF7EEFD3B
:105050000422454908316C20FBF7E8FD042242494F
:1050600024317020FBF7E2FD04223F4928317420EF
:10507000FBF7DCFD04223C492C317820FBF7D6FD00
:105080000422394948317C20FBF7D0FD04223649FF
:105090004C318020FBF7CAFD042233495031842073
:1050A000FBF7C4FD042230496C318820FBF7BEFDBC
:1050B00004222D4970318C20FBF7B8FD04222A49C7
:1050C00074319020FBF7B2FD022228499420FBF7AF
:1050D000ADFD022226499620FBF7A8FD02222549B4
:1050E0009820FBF7A3FD802223494FF49670FBF72D
:1050F0009DFD91201E490880084600881F490860D0
:10510000B2EE040A18483C3880ED0F0AB7EE080AE0
:1051100080ED100A9FED1A0A80ED110AB2EE0E0A18
:1051200080ED180AB0EE000A80ED190A9FED140A0E
:1051300080ED1A0AB6EE000A80ED210A9FED100AF2
:1051400080ED220A9FED0F0A80ED230AB7EE040AD4
:1051500080ED2A0A9FED0A0A80ED2B0AB6EE080AB6
:1051600080ED2C0A10BD0000442A00208602002099
:10517000880200208A0200207E0000209002002089
:1051800000000000CDCC4C3E7047000010B5024836
:10519000FDF744F810BD0000CC54002010B50248C3
:1051A000FDF73CF810BD00002455002070B5054601
:1051B000AC6B0020E087E0862046FDF72DF870BD3F
:1051C00070B50546AC6B2068406820F0030021688C
:1051D0004860606D40F010006065012084F8510067
:1051E0002046FDF719F870BD70B50446A56B28463A
:1051F000FDF7CDFA70BD70B50446A56B2846FDF7E6
:105200006FFD70BD70B50546AC6BFCF781FB0646C3
:105210002868006800F48070B0F5807F2BD020688B
:10522000406820F0200021684860A06850B960689C
:10523000B0F5827F06D12068406820F00300216825
:10524000486005E02068406820F00100216848605F
:1052500032466421204600F047F808B120206065FE
:105260000020E087012084F85100606D18B12046CD
:10527000FCF7D2FF70BD2046FDF788FA00BFF9E7C2
:1052800070B50546AC6BFCF743FB06462868006822
:1052900000F48070B0F5807F21D02068406820F055
:1052A00020002168486032466421204600F066F8FC
:1052B00018B1606D40F0200060652068406820F003
:1052C0000300216848600020E086E087012084F820
:1052D0005100606D18B12046FCF79EFF70BD20465E
:1052E000FDF7F2FC00BFF9E7F8B504460E46154697
:1052F0006068B0F5827F0DD1A068B0F5004F03D093
:10530000A068B0F5806F05D12068006820F04000EB
:10531000216808606068B0F5827F1FD1A068B0F591
:10532000806F0DD03346002280212046009500F08A
:105330005BF808B3606D40F0200060650320F8BDA5
:105340003346002201212046009500F04DF898B127
:10535000606D40F0200060650320F0E733460022D6
:1053600001212046009500F03FF828B1606D40F023
:10537000200060650320E2E70020E0E77CB50446FA
:105380000D461646164800681821B0FBF1F0154985
:10539000B0FBF1F04FF47A71484301906068B0F5CA
:1053A000827F0DD12B46002280212046009600F0FE
:1053B0001BF898B1606D40F02000606503207CBD53
:1053C00000BF019800B908E00198401E01902068D4
:1053D0008068C0F3C0100028F3D100BF0020EEE7C2
:1053E0009802002040420F002DE9F04104460E468D
:1053F00017461D46DDF818803EE0681CD8B3FCF760
:1054000087FAA0EB0800A84200D2A5BB206840683C
:1054100020F0E000216848606068B0F5827F0DD11F
:10542000A068B0F5004F03D0A068B0F5806F05D13B
:105430002068006820F0400021680860A06AB0F58C
:10544000005F0DD100BF2068006820F40050216883
:1054500008602068006840F400502168086000BFC0
:10546000012084F8510000BF002084F8500000BFE4
:105470000320BDE8F081FFE7206880683040B0423B
:1054800001D1012000E00020B842B6D10020F0E7B1
:105490007047000000B500232448408878280DDAC2
:1054A0002248408821498988884207DA1F48408875
:1054B0001F490988081A400003B212E01B4880887F
:1054C00078280DDA1948408818498988884207DD0C
:1054D0001648808817490988401A400003B200E046
:1054E0000023642B00DD642313F1640F01DA6FF0F5
:1054F0006303584200EE100AB8EEC00A0E4880ED71
:105500001E0A4FF4FA717430FFF705FC1BB9002036
:105510000A49088009E0084890ED250ABDEEC00A56
:1055200010EE100A00B20549088000BD740000208A
:105530007202002070020020082A002006010020CC
:1055400010B5FCF7EBF910BD00B593B0302107A8FA
:10555000FAF74DFF142102A8FAF749FF00BF002017
:1055600001902448006840F08050224908600846B5
:10557000006800F08050019000BF00BF00BF002015
:1055800001901D48006840F440401B4908600846EF
:10559000006800F44040019000BF00BF0220079067
:1055A00001200A9010200B9002200D9000210E91F6
:1055B00008210F91C821109104211191129107A87F
:1055C000FCF7C2FB08B1FBF71FFB0F200290022083
:1055D0000390002004904FF4805005900020069026
:1055E000032102A8FCF770FA08B1FBF70DFB13B01A
:1055F00000BD0000403802400070004014480068C0
:1056000040F47000124908601248006840F0010040
:105610001049086000200F49083108600D480068F3
:105620000D4908400B4908600C48091D0860081F17
:10563000006820F48020091F0860002005490C3113
:1056400008604FF000600249803908607047000030
:1056500088ED00E000380240FFFFF6FE1030002425
:1056600010B50248FDF7ACFD10BD0000BC5700208E
:1056700010B50268204B98420BD0B0F1804F08D093
:105680001E4B984205D01E4B984202D01D4B9842AB
:1056900003D122F070024B681A43174B984214D082
:1056A000B0F1804F11D0154B98420ED0144B984258
:1056B0000BD0144B984208D0134B984205D0134B93
:1056C000984202D0124B984203D122F44072CB6828
:1056D0001A4322F080034C6943EA040202608B689B
:1056E000C3620B688362044B984201D10B69036368
:1056F0000123436110BD0000000001400004004090
:1057000000080040000C00400040014000440140FF
:105710000048014030B501F01F05012404FA05F3EB
:10572000046A9C430462046A01F01F0502FA05F54D
:105730002C43046230BD30B50C46816821F47F41B2
:1057400042EA032525432943816030BD0A4681682A
:1057500021F0700142F00703194381607047000097
:1057600030B5056A25F001050562026A436884695F
:1057700024F0700424F003040D682C4322F002028C
:105780008D682A430D4DA84206D100BF22F00802C1
:10579000CD682A4322F00402084DA84207D123F421
:1057A000807323F400734D692B438D692B43436051
:1057B00084614D684563026230BD00000000014015
:1057C00030B5056A25F010050562026A43688469F0
:1057D00024F4E04424F440740D6844EA052422F0E3
:1057E00020028D6842EA05120E4DA84207D100BF83
:1057F00022F08002CD6842EA051222F04002094DF3
:10580000A84209D123F4806323F400634D6943EA7D
:1058100085038D6943EA8503436084614D68856330
:10582000026230BD0000014030B5056A25F4807584
:105830000562026A4368C46924F0700424F003041A
:105840000D682C4322F400728D6842EA05220F4D48
:10585000A84207D100BF22F40062CD6842EA0522C7
:1058600022F48062094DA84209D123F4805323F425
:1058700000534D6943EA05138D6943EA05134360FC
:10588000C4614D68C563026230BD00000000014084
:1058900030B5056A25F480550562036A4468C2691B
:1058A00022F4E04222F440720D6842EA052223F419
:1058B00000538D6843EA0533064DA84204D124F411
:1058C00080444D6944EA85144460C2614D680564B2
:1058D000036230BD0000014030B50B461446026A39
:1058E000056A25F001050562816921F0F00141EAB0
:1058F000041122F00A021A438161026230BD30B500
:105900000B461446056A25F0100505628169026A96
:1059100021F4704141EA043122F0A00242EA03126C
:105920008161026230BD70B50546AC6B0020E08538
:10593000E0842046FDF776FE70BD70B50646002572
:10594000B46B20684069C0F3C01594F83900212871
:1059500005D125B10020E084204600F082F82068BF
:105960004069C0F3801594F83A00222805D125B18A
:105970000020E085204600F054F8E06B40F0100075
:10598000E0632046FDF74EFE70BD70B50546AC6B7A
:105990002868006800F48070B0B90020E0852068B5
:1059A000C06820F480702168C8602068406920F0D9
:1059B0000100216848612068406920F040002168AA
:1059C0004861202084F83A002046FEF725F870BD93
:1059D00070B50446A56B2846FEF744F870BD70B557
:1059E0000546AC6B2868006800F4807070B9002030
:1059F000E0842068406920F08000216848612068C8
:105A0000C06840F040002168C86002E02046FEF710
:105A100079F870BD70B50446A56B2846FEF780F88E
:105A200070BD0168C96821F490710268D160016895
:105A3000496921F0010102685161202180F83A1082
:105A4000704710B504462068C06820F04000216807
:105A5000C860202084F839002046FEF753F8002063
:105A600010BD0168C96821F0C0010268D160202121
:105A700080F83910704770B5044694F83A0022282F
:105A80004AD1A068B0F5805F13D1A56A206940B9FA
:105A900020684068C0F308002880A06A801CA062CB
:105AA00019E020684068C0B22880A06A401CA0624B
:105AB00011E0206938B920684068C1B2A26A501C60
:105AC000A062117007E02068406800F07F01A26AC0
:105AD000501CA0621170E08D401E80B2E085C8B9F4
